:100000000C94DD020C947C060C9455060C940503AC
:100010000C9405030C9405030C9405030C94050340
:100020000C9405030C9405030C9405030C94050330
:100030000C9405030C9405030C9405030C94050320
:100040000C940B060C9405030C9420050C94FA04F4
:100050000C9405030C9405030C9405030C94050300
:100060000C9405030C940503EF06F206F506F8065A
:10007000FB06FE060107040707070A070D0710071E
:100080001307160719071C071F072207250728074C
:100090002B072E07310764657669636520696E69F1
:1000A0007469616C697A6564004343313130315F52
:1000B0004D41524353544154452000434331313064
:1000C000315F56455253494F4E2000434331313042
:1000D000315F504152544E554D2000455252002C34
:1000E0002042617474657279206C6576656C3A2083
:1000F00000455252002C204D6F6973747572652053
:100100006C6576656C3A20002C205061636B6574D9
:1001100020636F756E743A200053656E736F7220A2
:1001200049443A20002C204167653A20002C204C9D
:1001300051493A20002C20525353493A20002C2098
:100140004352433A20002C20426174746572792036
:100150006C6576656C3A20002C204D6F6973747560
:100160007265206C6576656C3A20002C20506163C6
:100170006B657420636F756E743A200053656E73FF
:100180006F722049443A20004E756D207361766588
:1001900064207265636F7264733A200053656E73F6
:1001A0006F72204461746120636F72727570742E77
:1001B0002045726173696E672E2E2E0078203A20DA
:1001C000746F67676C65206175746F20636C65611F
:1001D0006E7570206F662073656E736F7220646138
:1001E00074612061727261790061203A20636C65EC
:1001F000616E75702073656E736F722064617461D7
:100200002061727261790063203A20746F67676CB5
:100210006520736B697070696E67206F6620666118
:10022000696C656420435243207061636B6574732D
:10023000006D203A20446973706C6179204343312A
:10024000313031204D6172637374617465007320C5
:100250003A20446973706C61792043433131303105
:10026000205061636B65742053746174757300640E
:10027000203A2064756D702053656E736F72204450
:100280006174612041727261790048656C703A0056
:10029000536B6970206661696C656420435243202A
:1002A0005061636B6574733A20004175746F20630D
:1002B0006C65616E2053656E736F7220446174616A
:1002C0002041727261793A200020646174613A20A1
:1002D000003A2000207061636B65743A206C656E93
:1002E00020004352433A00204C51493A20005253D7
:1002F00053493A20002052582070636F756E742065
:10030000004E65772053656E736F7220446174618F
:1003100020417272617920656E74726965733A204A
:10032000004F6C642053656E736F7220446174617A
:1003300020417272617920656E74726965733A202A
:10034000004D415243535441544520756E6B6E6FBE
:10035000776E002830783136292054584649464F68
:100360005F554E444552464C4F57205458464946D7
:100370004F5F554E444552464C4F57002830783118
:10038000352920525854585F5357495443482052F6
:100390005854585F534554544C494E4700283078C0
:1003A0003134292054585F454E4420545800283099
:1003B000783133292054582054580028307831326D
:1003C0002920465354584F4E20465354584F4E0000
:1003D0002830783131292052584649464F5F4F56D0
:1003E0004552464C4F572052584649464F5F4F564C
:1003F0004552464C4F570028307831302920545808
:1004000052585F53574954434820545852585F53E9
:100410004554544C494E47002830783046292052E4
:10042000585F5253542052580028307830452920C4
:1004300052585F454E4420525800283078304429A5
:100440002052582052580028307830432920454EF9
:100450004443414C2043414C4942524154450028B9
:1004600030783042292049464144434F4E2053457D
:1004700054544C494E470028307830412920465387
:100480005F4C4F434B20534554544C494E47002832
:100490003078303929204257424F4F53542053452A
:1004A00054544C494E470028307830382920535452
:1004B00041525443414C2043414C494252415445DE
:1004C00000283078303729205245474F4E20465378
:1004D0005F57414B4555500028307830362920561B
:1004E000434F4F4E2046535F57414B4555500028D0
:1004F0003078303529204D414E43414C204D414EFE
:1005000043414C00283078303429205245474F4E23
:100510005F4D43204D414E43414C002830783033ED
:10052000292056434F4F4E5F4D43204D414E43418E
:100530004C0028307830322920584F464620584FFA
:100540004646002830783031292049444C4520491E
:10055000444C450028307830302920534C454550D4
:1005600020534C4545500000000000240027002A7D
:100570000000000000250028002B000404040404EF
:100580000404040202020202020303030303030140
:100590000204081020408001020408102001020417
:1005A00008102000000008000201000003040700FA
:1005B0000000000000000000B50E11241FBECFEFA8
:1005C000D8E0DEBFCDBF11E0A0E0B1E0E8EAF9E29B
:1005D00002C005900D92AA3AB107D9F723E0AAEA22
:1005E000B1E001C01D92AE33B207E1F712E0CDEDEC
:1005F000D2E004C02197FE010E941F10CC3DD1071C
:10060000C9F70E9483090C94D2140C940000CF9275
:10061000DF92EF92FF920F931F93CF93DF936C01C2
:100620007A018B01C0E0D0E0CE15DF0589F0D8015A
:100630006D918D01D601ED91FC910190F081E02D3D
:10064000C6010995892B11F47E0102C02196ECCFD9
:10065000C701DF91CF911F910F91FF90EF90DF9035
:10066000CF900895FC01918D828D981761F0828D55
:10067000DF01A80FB11D5D968C91928D9F5F9F73D6
:10068000928F90E008958FEF9FEF0895FC01918D78
:10069000828D981731F0828DE80FF11D858D90E0E5
:1006A00008958FEF9FEF0895FC01918D228D892F82
:1006B00090E0805C9F4F821B91098F73992708956A
:1006C00087E992E00E94540321E0892B09F420E09D
:1006D000822F0895FC01848DDF01A80FB11DA35A5C
:1006E000BF4F2C91848D90E001968F739927848F52
:1006F000A689B7892C93A089B1898C9180648C9349
:10070000938D848D981306C00288F389E02D808133
:100710008F7D80830895EF92FF920F931F93CF9365
:10072000DF93EC0181E0888F9B8D8C8D981305C041
:10073000E889F989808185FD24C0F62E0B8D10E0B3
:100740000F5F1F4F0F731127E02E8C8DE8120CC026
:100750000FB607FCFACFE889F989808185FFF5CFCC
:10076000CE010E946A03F1CF8B8DFE01E80FF11DCF
:10077000E35AFF4FF0820B8FEA89FB898081806208
:1007800007C0EE89FF896083E889F98980818064E8
:10079000808381E090E0DF91CF911F910F91FF90D6
:1007A000EF900895CF93DF93EC01888D8823C9F0F3
:1007B000EA89FB89808185FD05C0A889B9898C916A
:1007C00086FD0FC00FB607FCF5CF808185FFF2CF05
:1007D000A889B9898C9185FFEDCFCE010E946A036B
:1007E000E7CFDF91CF91089580E090E0892B29F049
:1007F0000E94600381110C9400000895089581E027
:100800008093240208950E941C120F931F93CF938C
:10081000DF93EC0188819981009729F02A813B813F
:100820002617370788F48B016F5F7F4F0E945211A4
:10083000009761F0998388831B830A832C813D8113
:10084000232B11F4FC01108281E001C080E0DF91D4
:10085000CF911F910F910895EF92FF920F931F93E5
:10086000CF93DF936115710511F480E023C0FB0184
:1008700001900020E9F73197E61BF70BDC01149695
:100880000D911C9115973097A1F07B01EC010E0F93
:100890001F1FB8010E940504882339F3288139817C
:1008A0008C819D81B701820F931F0E942A121D83A4
:1008B0000C8381E0DF91CF911F910F91FF90EF901A
:1008C0000895CF92DF92EF92FF920F931F93CF93F1
:1008D000DF93CDB7DEB728970FB6F894DEBF0FBE13
:1008E000CDBF8C01CB014AE09E012F5F3F4F6901D4
:1008F000B9010E94630FF60101900020E9F73197DA
:10090000EC19FD09D8011496ED90FC9015973097DD
:10091000B9F0EE0EFF1EB701C8010E94050488233E
:1009200081F0F8012081318184819581B601820FA7
:10093000931F0E942A12D8011596FC92EE921497EA
:1009400081E028960FB6F894DEBF0FBECDBFDF91D1
:10095000CF911F910F91FF90EF90DF90CF9008956E
:10096000CF93DF93EC0188819981009711F00E9469
:10097000BA10198218821D821C821B821A82DF9192
:10098000CF910895EF92FF920F931F93CF93DF9330
:10099000EC01198218821B821A821D821C82611549
:1009A000710509F18B01CB010E945A0F7C01BC013A
:1009B000CE010E940504811109C0CE01DF91CF91C3
:1009C0001F910F91FF90EF900C94B004FD82EC8288
:1009D000B80188819981DF91CF911F910F91FF908C
:1009E000EF900C94530FDF91CF911F910F91FF90D7
:1009F000EF9008951F920F920FB60F9211242F932C
:100A00003F934F935F936F937F938F939F93AF9396
:100A1000BF93EF93FF9387E992E00E946A03FF91EF
:100A2000EF91BF91AF919F918F917F916F915F9166
:100A30004F913F912F910F900FBE0F901F901895DF
:100A40001F920F920FB60F9211242F938F939F93A3
:100A5000EF93FF93E091A702F091A8028081E091CB
:100A6000AD02F091AE0282FD12C090818091B00281
:100A70008F5F8F732091B102821751F0E091B00225
:100A8000F0E0E956FD4F958F8093B00201C0808160
:100A9000FF91EF919F918F912F910F900FBE0F902B
:100AA0001F90189590E0FC01ED55FA4F3491FC0130
:100AB000E157FA4F2491FC01E558FA4FE491EE23F7
:100AC00009F43BC0332339F1333091F038F431303D
:100AD000A9F0323001F584B58F7D12C0373091F026
:100AE0003830A1F03430B9F4809180008F7D03C09C
:100AF000809180008F77809380000DC084B58F77C0
:100B000084BD09C08091B0008F7703C08091B00090
:100B10008F7D8093B000F0E0EE0FFF1FEF58FA4F8B
:100B2000A591B4918FB7F894EC91611103C0209511
:100B30002E2301C02E2B2C938FBF0895CF93DF93CC
:100B400090E0FC01E157FA4F2491FC01E558FA4F7F
:100B50008491882361F190E0880F991FFC01E95985
:100B6000FA4FC591D491FC01EF58FA4FA591B49179
:100B7000611109C09FB7F8948881209582238883EA
:100B8000EC912E230BC0623061F49FB7F89438814A
:100B9000822F809583238883EC912E2B2C939FBFEB
:100BA00006C08FB7F894E8812E2B28838FBFDF9182
:100BB000CF9108953FB7F894809193029091940259
:100BC000A0919502B091960226B5A89B05C02F3F33
:100BD00019F00196A11DB11D3FBFBA2FA92F982F63
:100BE0008827820F911DA11DB11DBC01CD0142E0DE
:100BF000660F771F881F991F4A95D1F708952FB761
:100C0000F89460918F02709190028091910290917E
:100C100092022FBF08951F920F920FB60F921124C8
:100C20002F933F938F939F93AF93BF9380918F02A6
:100C300090919002A0919102B091920230918E0217
:100C400023E0230F2D3720F40196A11DB11D05C00F
:100C500026E8230F0296A11DB11D20938E028093DA
:100C60008F0290939002A0939102B0939202809190
:100C7000930290919402A0919502B09196020196F0
:100C8000A11DB11D8093930290939402A0939502AD
:100C9000B0939602BF91AF919F918F913F912F9109
:100CA0000F900FBE0F901F9018951F920F920FB6C6
:100CB0000F9211242F933F934F935F936F937F93E2
:100CC0008F939F93AF93BF93EF93FF93E0910201B4
:100CD000F09103010995FF91EF91BF91AF919F9121
:100CE0008F917F916F915F914F913F912F910F90D5
:100CF0000FBE0F901F9018951F920F920FB60F9274
:100D000011242F933F934F935F936F937F938F9310
:100D10009F93AF93BF93EF93FF93E0910001F09106
:100D200001010995FF91EF91BF91AF919F918F9133
:100D30007F916F915F914F913F912F910F900FBED7
:100D40000F901F901895EF92FF920F931F93CF93E0
:100D5000DF93CDB7DEB7C059D1090FB6F894DEBF27
:100D60000FBECDBFF82EE92E7F936F9324E831E0BC
:100D70003F932F938E010F5F1F4F1F930F930E947E
:100D80003112EF92FF921F930F9300581F4F1F9342
:100D90000F930E943112C8010E949C080FB6F8946C
:100DA000DEBF0FBECDBFC057DF4F0FB6F894DEBF1A
:100DB0000FBECDBFDF91CF911F910F91FF90EF90AC
:100DC0000895CF93DF93EC01862F90E08731910552
:100DD00008F04AC0FC01EC5CFF4F0C941F1064E566
:100DE00075E044C063E475E041C062E375E03EC075
:100DF0006BE175E03BC064E075E038C06FEE74E015
:100E000035C068ED74E032C061EC74E02FC067EA71
:100E100074E02CC06FE874E029C067E774E026C076
:100E20006FE574E023C067E474E020C06AE374E017
:100E30001DC069E274E01AC068E174E017C067EF92
:100E400073E014C060ED73E011C06BEB73E00EC093
:100E50006EEA73E00BC06DE973E008C06CE773E005
:100E600005C063E573E002C061E473E0CE010E9457
:100E7000C204CE01DF91CF9108954F925F926F929D
:100E80007F928F929F92AF92BF92CF92DF92EF921A
:100E9000FF92CF93DF9300D000D0CDB7DEB7698348
:100EA0007A838B839C8328EE33E040E050E00E94FD
:100EB000DA0F29013A018CE3C82ED12CE12CF12C58
:100EC000CA01B901A70196010E94DA0F49015A012E
:100ED000CA01B901A70196010E94DA0F69017A01DE
:100EE000C90168E170E00E940B10FB01A8EEB3E0BD
:100EF000A30192010E94980F29813A814B815C8164
:100F0000261B370B480B590B29833A834B835C8391
:100F10003F932F93ACE3B0E0A50194010E94980F9A
:100F2000461A570A680A790A1F924F922CE32C9DA1
:100F3000C0012D9D900D1124881A990AA108B108AD
:100F40001F928F9228E12E9FC0012F9F900D112498
:100F5000C81AD90ADD24DF92CF92FF93EF938BE872
:100F600091E09F938F938EE692E09F938F930E94E0
:100F700031120FB6F894DEBF0FBECDBF8EE692E001
:100F80000F900F900F900F90DF91CF91FF90EF9007
:100F9000DF90CF90BF90AF909F908F907F906F9099
:100FA0005F904F900895CF93C82F61E00E94520543
:100FB0000E94650860E08C2FCF910C945205CF926F
:100FC000DF92EF92FF920F931F93CF93DF9381E213
:100FD00093E00E94640980912202909123020E9472
:100FE0002D090AEA11E0C0E0D0E080912202909140
:100FF0002302C817D907E4F40E94FF05F801C28054
:10100000D380E480F580DC01CB018C199D09AE0909
:10101000BF09045F1F4F81389E4EA643B10530F0D3
:101020002197D0932302C093220202C02196DDCFE4
:1010300081E093E00E946409809122029091230252
:10104000DF91CF911F910F91FF90EF90DF90CF90A4
:101050000C942D098EBD0DB407FEFDCF8EB50895FD
:10106000CF93DF931F92CDB7DEB72A981C99FECF9E
:1010700069830E942A086981862F0E942A082A9A79
:101080000F90DF91CF9108952A981C99FECF0E946E
:101090002A082A9A0895806C2A981C99FECF0E94EB
:1010A0002A0880E00E942A082A9A089561E28DE0C9
:1010B0000E94300863E68EE00E94300862E78FE00D
:1010C0000E9430081092350308958F929F92AF923C
:1010D000BF92CF92DF92EF92FF920E94DA054B010E
:1010E0005C0184E6C82ED12CE12CF12C0E94DA059B
:1010F000DC01CB0188199909AA09BB09883E9340F4
:10110000A105B10558F021E0C21AD108E108F108A3
:1011100088EE880E83E0981EA11CB11CC114D10476
:10112000E104F10419F7FF90EF90DF90CF90BF90AA
:10113000AF909F908F900895009769F0FC01019007
:101140000020E9F73197AF01481B590BBC0187E933
:1011500092E00C94070380E090E0089587EA91E024
:101160000C949C08CF93DF930E949C08EC010E9492
:10117000AE088C0F9D1FDF91CF9108958F929F92A3
:10118000AF92BF920F931F93CF93DF93CDB7DEB78C
:10119000A1970FB6F894DEBF0FBECDBF19A24230A3
:1011A00008F44AE08E010F5D1F4F842E912CA12C74
:1011B000B12CA50194010E94DA0FE62FB901CA01F2
:1011C00001501109EA3014F4E05D01C0E95CD80176
:1011D000EC93232B242B252B61F7C8010E949C083C
:1011E000A1960FB6F894DEBF0FBECDBFDF91CF91B1
:1011F0001F910F91BF90AF909F908F900895682F8F
:1012000070E080E090E04AE00C94BE08CF92DF925C
:10121000EF92FF92CF93DF936B017C01E0919702F5
:10122000F09198020190F081E02D6DE287E992E063
:101230000995EC0166277727CB016C197D098E098A
:101240009F094AE00E94BE088C0F9D1FDF91CF913D
:10125000FF90EF90DF90CF900895CF93DF93BC0184
:10126000990F880B990B97FF03C00E94060903C0D2
:101270004AE00E94BE08EC010E94AE088C0F9D1F40
:10128000DF91CF9108950F931F93CF93DF938C013C
:10129000C0E0D0E0F801EC0FFD1F6491662371F00F
:1012A000E0919702F09198020190F081E02D87E99A
:1012B00092E00995892B11F02196ECCFCE01DF91B8
:1012C000CF911F910F910895CF93DF930E9443090F
:1012D000EC010E94AE088C0F9D1FDF91CF91089505
:1012E000CF93DF93FC01448155816081718187E94F
:1012F00092E00E940703EC010E94AE088C0F9D1F34
:10130000DF91CF910895CF93DF9300D000D000D02C
:10131000CDB7DEB7789484B5826084BD84B5816032
:1013200084BD85B5826085BD85B5816085BD8091B0
:101330006E00816080936E00109281008091810028
:101340008260809381008091810081608093810020
:10135000809180008160809380008091B1008460E2
:101360008093B1008091B00081608093B000809143
:101370007A00846080937A0080917A008260809302
:101380007A0080917A00816080937A0080917A005F
:10139000806880937A001092C100E091A702F091DA
:1013A000A80282E08083E091A302F091A40210825F
:1013B000E091A502F091A60280E180831092AF0235
:1013C000E091AB02F091AC0286E08083E091A9024B
:1013D000F091AA02808180618083E091A902F0915E
:1013E000AA02808188608083E091A902F091AA021C
:1013F000808180688083E091A902F091AA028081B7
:101400008F7D808361E089E00E949E0560E089E035
:101410000E94520589E00E94D30784E00E94D3070E
:1014200085E00E94D30786E00E94D30787E00E94F0
:10143000D30761E08AE00E94520561E08AE00E94E1
:101440009E0561E08BE00E949E0560E08CE00E94BA
:101450009E0561E08DE00E949E0561E08DE00E94A6
:10146000520560E08BE00E94520580E58CBD60E093
:1014700083E00E949E052A9A8FE090E00197F1F7A1
:101480002A9883E290E00197F1F72A9A8FE990E099
:101490000197F1F72A981C99FECF80E30E942A0851
:1014A0001C99FECF2A9A69E080E00E94300866E02D
:1014B00082E00E94300867E083E00E94300866E026
:1014C00086E00E9430086CE087E00E94300864E00B
:1014D00088E00E94300861E985E00E94300863EDF1
:1014E00084E00E94300866E08BE00E9430080E9491
:1014F000560865EF80E10E94300863E881E10E94B0
:10150000300863E182E10E94300860E783E10E94D5
:10151000300868EF84E10E94300865E185E10E94AF
:10152000300867E086E10E94300860E187E10E94B0
:10153000300868E188E10E94300861E089E10E949A
:1015400030086EE68AE10E94300863E08BE10E9479
:10155000300862E68CE10E94300861E58DE10E946E
:10156000300867E88EE10E9430086BE68FE10E9448
:10157000300868EF80E20E94300866E581E20E9450
:10158000300869EE83E20E9430086AE284E20E9439
:10159000300860E085E20E9430086FE186E20E9438
:1015A00030082A981C99FECF8EE70E942A080CE08A
:1015B00011E078E0F72EF00EF80181918F010E9482
:1015C0002A08F012F9CF2A9A0E94560864E087E0B0
:1015D0000E9430088BEC90E00E94430980E30E9457
:1015E0004B08682F70E080E090E04AE00E94BE085F
:1015F0000E94AE088BEB90E00E94430981E30E94B9
:101600004B08682F70E080E090E04AE00E94BE083E
:101610000E94AE0889EA90E00E94430985E30E9497
:101620004B08682F6F71CE0101960E94E106CE0132
:1016300001960E94700989819A810E94BA101092C5
:10164000240210926A0210926B0210926C021092A5
:101650006D028FEF93E090930301809302018091DC
:101660006900837F886080936900E99A86E990E049
:101670000E9464093EEFE32E33E0F32E4FEFC42EB9
:1016800043E0D42E5CE0452E552453946AE2662E46
:1016900062E0762E80912402882309F4ABC1E99898
:1016A000F0920301E09202011092240280916A02FA
:1016B00090916B02A0916C02B0916D020196A11DF8
:1016C000B11D80936A0290936B02A0936C02B09359
:1016D0006D020E94FF050E943D070E949C0885EF55
:1016E00092E00E94430960916A0270916B028091BE
:1016F0006C0290916D024AE00E94BE080E94AE0802
:101700008BE30E944B08182F85E30E944B088F71D2
:10171000813141F484E291E00E94B20886E30E94A4
:1017200044081CC08BE30E944B088F7709F44AC021
:101730001350109329021E33B8F088E391E00E9401
:10174000B208809129020E94FF0889E491E00E947A
:10175000B20886E30E9444080E9465088AE30E945A
:1017600044081092290236C02A981C99FECF8FEFA8
:101770000E942A082AE2A22E22E0B22E8A2D861981
:10178000811738F480E00E942A08F50181935F01F7
:10179000F5CF2A9A84E30E944B0887FD80958695B1
:1017A000865B8093680283E30E944B08982F909594
:1017B0009F7390936902982F991F9927991F90936F
:1017C000670202C01092290286E30E9444088AE35D
:1017D0000E94440880912902882309F4F6C0909160
:1017E000050180916702911102C0882319F08823B6
:1017F00009F4EBC08EEE92E00E94430980916802EA
:101800000E94FF0887EE92E00E94430980916902DE
:101810000E94FF0880E591E00E949C0880912902C7
:10182000882309F4D2C082EE92E00E9443096091BD
:10183000670270E080E090E04AE00E94BE0884ED1C
:1018400092E00E944309809129020E94FF0881EDE5
:1018500092E00E94430989EC92E00E94430900E073
:1018600010E08091290290E00817190784F4F8012C
:10187000E75DFD4F818162E070E090E00E94A30689
:1018800080E591E00E949C080F5F1F4FEACF89EA34
:1018900091E00E94B20880912902853009F095C03C
:1018A00089E191E00E94430900912D0210E0102F80
:1018B000002780912E02082B64E070E0C8010E948E
:1018C000A30688E091E00E94430980912A020E94C9
:1018D000FF0885EF90E00E94430980912B02883039
:1018E00020F40E94FF08B12C06C081EF90E00E9416
:1018F0004309BB24B3948FED90E00E94430980918B
:101900002C02843028F40E94FF08B1105EC005C08C
:101910008BED90E00E94430958C00E94FF05809023
:101920002A0290902B0250912C0240916702A091C4
:101930006802B09169020115110509F446C0EAEA8E
:10194000F1E020E030E0A080B180A016B106A1F463
:10195000429EF001439EF00D1124E655FE4F118387
:101960000083628373838483958386829782508702
:101970004187A287B38727C02F5F3F4F3C962A300D
:10198000310509F72091220230912302429EF00195
:10199000439EF00D1124E655FE4F118300836283B0
:1019A0007383848395838682978250874187A28739
:1019B000B387C90101968B3091050CF4C4C1109214
:1019C0002302109222020E94E20E89EA91E00E9414
:1019D000B20889E00E94D30784E30E944408D092B1
:1019E0000301C092020180916900837F8860809327
:1019F0006900E99A87E992E00E94540318161906D3
:101A00000CF09EC187E992E00E943203883609F407
:101A1000A7C05CF4833609F460C18436C1F0813616
:101A200009F075C10E94DF0772C1833709F4B7C09E
:101A3000883709F45EC18D3609F069C185E30E94DB
:101A40004B08682FCE0101960E94E1063DC18091AE
:101A50002202909123020B974CF0109223021092D5
:101A600022028CE991E00E94640951C188E891E06A
:101A70000E94430980912202909123020E942D0925
:101A80008AEAA82E81E0B82E05EB11E0812C912C7A
:101A90008091220290912302881699060CF07CC056
:101AA0008CE791E00E94430964E070E0F5018081D9
:101AB00091810E94A3068BE691E00E944309F80100
:101AC000359780810E94FF0888E591E00E944309D4
:101AD000F801349780810E94FF0886E491E00E941B
:101AE0004309F801339780810E94FF088EE391E05B
:101AF0000E944309F8013297608170E080E090E035
:101B00004AE00E94BE0885E391E00E944309F80183
:101B1000319780810E94FF088DE291E00E94430985
:101B2000F80180810E94FF0885E291E00E9443094C
:101B30000E94FF05F5012281338144815581621B9A
:101B4000730B840B950B0E943D070E94B208FFEFB8
:101B50008F1A9F0A2CE0A20EB11C045F1F4F98CF72
:101B60008AE892E00E9464098FE692E00E9464098C
:101B70008EE492E00E94640981E392E00E9464098D
:101B800087E092E00E94640989EE91E00E94640976
:101B90008CEB91E00E9464090E94AE08B8C088E313
:101BA0000E944B08182F1A8219821C821B821E82E7
:101BB0001D8260E070E0CE0101960E940504811153
:101BC00005C0CE0101960E94B00408C01E821D828D
:101BD00069EA71E089819A810E942A1265E070E0C9
:101BE000CE0101960E940504811105C0CE01019627
:101BF0000E94B0040AC085E090E09E838D8362E578
:101C000071E089819A810E942A12612F617070E0CF
:101C1000CE0101960E94610468E571E0CE01019653
:101C20000E942C0412FB662760F970E0CE01019639
:101C30000E9461046FE571E0CE0101960E942C04C0
:101C400013FB662760F970E0CE0101960E946104E3
:101C500065E671E0CE0101960E942C0414FB662714
:101C600060F970E0CE0101960E9461046BE671E0BC
:101C7000CE0101960E942C0415FB662760F970E0E6
:101C8000CE0101960E94610469E771E0CE010196E0
:101C90000E942C0416FB662760F970E0CE010196C5
:101CA0000E9461046EE771E0CE0101960E942C044F
:101CB000812F110F990B692F661F6627661F70E031
:101CC000CE0101960E946104CE0101960E94700926
:101CD00089819A810E94BA101AC0809105018525D8
:101CE0008093050180E992E00E94640980910501DA
:101CF0000BC0809104018525809304018AEA92E05B
:101D00000E9464098091040190E00E942D09809155
:101D100004018823A9F00E94FF050091250210917B
:101D200026022091270230912802DC01CB01801B82
:101D3000910BA20BB30B81349747AB41B10540F433
:101D40000E94F403A7CC90932302809322023BCEFF
:101D50000E94DF070E94FF05609325027093260210
:101D60008093270290932802EBCFE7E9F2E01382F9
:101D7000128288EE93E0A0E0B0E084839583A6838E
:101D8000B78388E191E09183808385EC90E095872B
:101D9000848784EC90E09787868780EC90E0918B35
:101DA000808B81EC90E0938B828B82EC90E0958B22
:101DB000848B86EC90E0978B868B118E128E138E1F
:101DC000148E08954F925F926F927F928F929F929E
:101DD000AF92BF92FF920F931F93CF93DF93CDB734
:101DE000DEB72C970FB6F894DEBF0FBECDBF40E034
:101DF00050E08CE0F82E80912202909123029C0109
:101E00002150310942175307D4F52AEA31E066EB35
:101E100071E000E010E0841B950B0197081719078B
:101E20005CF50F5F1F4FF90142805380648075801D
:101E300086849784A088B188481459046A047B0476
:101E4000B0F4DE011196BF2C01900D92BA94E1F727
:101E5000FB01D901BF2C01900D92BA94E1F7FE016C
:101E60003196DB01BF2C01900D92BA94E1F7245F0B
:101E70003F4F645F7F4FD2CF4F5F5F4FBCCF2C96F9
:101E80000FB6F894DEBF0FBECDBFDF91CF911F918B
:101E90000F91FF90BF90AF909F908F907F906F9029
:101EA0005F904F900895FB01DC0105900D9200209A
:101EB000E1F70895FC0105900020E9F780959095E1
:101EC0008E0F9F1F0895BB274A3031F4992322F4C7
:101ED000BDE2909581959F4F0C946F0FBB27FB013E
:101EE0005527AA27880F991FAA1FA41710F0A41B13
:101EF00083955051B9F7A05DAA3308F0A95DA1936D
:101F0000009779F7B111B1931192CB010C94880F1E
:101F1000DC01FC01672F71917723E1F7329704C050
:101F20007C916D9370836291AE17BF07C8F30895DB
:101F30000E94FC0FA59F900DB49F900DA49F800D53
:101F4000911D112408952F923F924F925F926F92AC
:101F50007F928F929F92AF92BF92CF92DF92EF9239
:101F6000FF920F931F93CF93DF93CDB7DEB7CA1BBA
:101F7000DB0B0FB6F894DEBF0FBECDBF09942A88E5
:101F8000398848885F846E847D848C849B84AA848D
:101F9000B984C884DF80EE80FD800C811B81AA811A
:101FA000B981CE0FD11D0FB6F894DEBF0FBECDBFE5
:101FB000ED010895A1E21A2EAA1BBB1BFD010DC065
:101FC000AA1FBB1FEE1FFF1FA217B307E407F507E9
:101FD00020F0A21BB30BE40BF50B661F771F881FC5
:101FE000991F1A9469F760957095809590959B015B
:101FF000AC01BD01CF010895A29FB001B39FC00104
:10200000A39F700D811D1124911DB29F700D811D24
:102010001124911D0895AA1BBB1B51E107C0AA1FE3
:10202000BB1FA617B70710F0A61BB70B881F991F79
:102030005A95A9F780959095BC01CD010895EE0FB2
:10204000FF1F0590F491E02D0994CF93DF93823028
:10205000910510F482E090E0E0913C03F0913D03A3
:1020600020E030E0C0E0D0E0309711F140815181B4
:1020700048175907C0F04817590761F482819381C6
:10208000209719F09B838A832BC090933D03809304
:102090003C0326C02115310519F04217530718F4E7
:1020A0009A01BE01DF01EF010280F381E02DDCCF58
:1020B0002115310509F1281B390B2430310590F425
:1020C00012968D919C9113976115710521F0FB017A
:1020D0009383828304C090933D0380933C03FD016E
:1020E000329644C0FD01E20FF31F81939193225079
:1020F00031092D933C933AC020913A0330913B0330
:10210000232B41F4209108013091090130933B03C6
:1021100020933A03209106013091070121153105E2
:1021200041F42DB73EB740910A0150910B01241B99
:10213000350BE0913A03F0913B03E217F307A0F46B
:102140002E1B3F0B2817390778F0AC014E5F5F4F0D
:102150002417350748F04E0F5F1F50933B03409301
:102160003A038193919302C0E0E0F0E0CF01DF9168
:10217000CF9108950F931F93CF93DF93009709F4A6
:102180008CC0FC0132971382128200913C031091A3
:102190003D030115110581F420813181820F931FC8
:1021A00020913A0330913B032817390779F5F093D2
:1021B0003B03E0933A0371C0D80140E050E0AE1712
:1021C000BF0750F412962D913C911397AD01211544
:1021D000310509F1D901F3CF9D01DA01338322835F
:1021E00060817181860F971F8217930769F4EC0154
:1021F00028813981260F371F2E5F3F4F318320837F
:102200008A819B8193838283452B29F4F0933D033C
:10221000E0933C0342C01396FC93EE931297ED01BA
:10222000499159919E01240F351FE217F30771F46C
:1022300080819181840F951F029611969C938E93B5
:102240008281938113969C938E931297E0E0F0E045
:10225000D80112968D919C911397009719F0F8016F
:102260008C01F6CF8D919C9198012E5F3F4F820F8C
:10227000931F20913A0330913B032817390769F4E3
:10228000309729F410923D0310923C0302C0138250
:10229000128210933B0300933A03DF91CF911F9179
:1022A0000F910895A0E0B0E0E8E5F1E10C94A70FEC
:1022B000EC01009721F4CB010E942510B8C0FC016D
:1022C000E60FF71F9C0122503109E217F30708F4CB
:1022D000ACC0D9010D911C91119706171707B0F0EA
:1022E0000530110508F49FC0C801049786179707A9
:1022F00008F499C002501109061B170B01931193A2
:102300006D937C93CF010E94BA108DC05B01A01A1F
:10231000B10A4C01800E911EA0913C03B0913D0387
:1023200040E050E0E12CF12C109709F44AC0A815C8
:10233000B905D1F56D907C901197630182E0C80ECC
:10234000D11CCA14DB0480F1A3014A195B096A019C
:1023500082E0C80ED11C1296BC9012971396AC91D5
:10236000B5E0CB16D10440F0B282A3835183408301
:10237000D9016D937C930AC00E5F1F4FC301800F7C
:10238000911FF90191838083EB2DFA2FE114F10461
:1023900031F0D7011396FC93EE93129744C0F0935B
:1023A0003D03E0933C033FC08D919C9111974817EA
:1023B000590708F4AC017D0112960D90BC91A02D37
:1023C000B3CF80913A0390913B0388159905E1F4CE
:1023D00046175707C8F480910601909107010097AE
:1023E00041F48DB79EB740910A0150910B01841BB7
:1023F000950BE817F907C8F4F0933B03E0933A0311
:10240000F901718360830FC0CB010E9425107C010C
:10241000009759F0A801BE010E942112CE010E942E
:10242000BA10C70104C0CE0102C080E090E0CDB771
:10243000DEB7EEE00C94C30F81E090E0F8940C94CA
:10244000D214FB01DC0102C001900D9241505040BA
:10245000D8F70895FB01DC0101900D920020E1F70F
:102460000895AEE0B0E0E7E3F2E10C94B10F0D891E
:102470001E8986E08C831A8309838FEF9FE79E83F2
:102480008D83AE01475E5F4F6F89788DCE010196D7
:102490000E9454122F813885F801E20FF31F108239
:1024A0002E96E4E00C94CD0FACE0B0E0EAE5F2E16A
:1024B0000C94A30F7C016B018A01FC011782168228
:1024C000838181FFBDC1CE0101964C01F70193814B
:1024D000F60193FD859193FF81916F01882309F4A3
:1024E000ABC1853239F493FD859193FF81916F01E2
:1024F000853229F4B70190E00E943C14E7CF512CBB
:10250000312C20E02032A0F48B3269F030F480329C
:1025100059F0833269F420612CC08D3239F0803358
:1025200039F4216026C02260246023C0286021C0C5
:1025300027FD27C030ED380F3A3078F426FF06C06B
:10254000FAE05F9E300D1124532E13C08AE0389EAE
:10255000300D1124332E20620CC08E3221F426FD62
:102560006BC1206406C08C3611F4206802C0883626
:1025700041F4F60193FD859193FF81916F018111E3
:10258000C1CF982F9F7D9554933028F40C5F1F4F37
:10259000FFE3F9830DC0833631F0833771F0833563
:1025A00009F05BC022C0F801808189830E5F1F4F54
:1025B00044244394512C540115C03801F2E06F0EAD
:1025C000711CF801A080B18026FF03C0652D70E06A
:1025D00002C06FEF7FEFC5012C870E9431142C01E0
:1025E00083012C852F77222E17C03801F2E06F0E61
:1025F000711CF801A080B18026FF03C0652D70E03A
:1026000002C06FEF7FEFC5012C870E9426142C01BA
:102610002C852068222E830123FC1BC0832D90E093
:1026200048165906B0F4B70180E290E00E943C14CD
:102630003A94F4CFF50127FC859127FE81915F0143
:10264000B70190E00E943C1431103A94F1E04F1A27
:1026500051084114510471F7E5C0843611F08936F0
:1026600039F5F80127FF07C060817181828193816C
:102670000C5F1F4F08C060817181072E000C880B12
:10268000990B0E5F1F4F2F76722E97FF09C0909502
:102690008095709561957F4F8F4F9F4F2068722E68
:1026A0002AE030E0A4010E947414A82EA81844C0A7
:1026B000853729F42F7EB22E2AE030E025C0F22F94
:1026C000F97FBF2E8F36C1F018F4883579F0B4C089
:1026D000803719F0883721F0AFC02F2F2061B22E3C
:1026E000B4FE0DC08B2D8460B82E09C024FF0AC033
:1026F0009F2F9660B92E06C028E030E005C020E18B
:1027000030E002C020E132E0F801B7FE07C060818E
:102710007181828193810C5F1F4F06C0608171813E
:1027200080E090E00E5F1F4FA4010E947414A82E59
:10273000A818FB2DFF777F2E76FE0BC0372D3E7F2E
:10274000A51450F474FE0AC072FC08C0372D3E7EFA
:1027500005C0BA2C372D03C0BA2C01C0B52C34FFEC
:102760000DC0FE01EA0DF11D8081803311F4397E28
:1027700009C032FF06C0B394B39404C0832F867897
:1027800009F0B39433FD13C030FF06C05A2CB314C4
:1027900018F4530C5B18B32CB31468F4B70180E23F
:1027A00090E03C870E943C14B3943C85F5CFB31471
:1027B00010F43B1801C0312C34FF12C0B70180E384
:1027C00090E03C870E943C143C8532FF17C031FDED
:1027D00003C088E790E002C088E590E0B7010CC034
:1027E000832F867859F031FF02C08BE201C080E26E
:1027F00037FD8DE2B70190E00E943C14A51438F437
:10280000B70180E390E00E943C145A94F7CFAA9459
:10281000F401EA0DF11D8081B70190E00E943C14A3
:10282000A110F5CF332009F451CEB70180E290E03A
:102830000E943C143A94F6CFF7018681978102C03A
:102840008FEF9FEF2C96E2E10C94BF0FFC010590F7
:10285000615070400110D8F7809590958E0F9F1FA2
:102860000895FC016150704001900110D8F78095E7
:1028700090958E0F9F1F08950F931F93CF93DF9313
:10288000FB01238121FD03C08FEF9FEF28C022FFB2
:1028900016C046815781248135814217530744F47D
:1028A000A081B1819D012F5F3F4F318320838C93A5
:1028B000268137812F5F3F4F3783268310C0EB017E
:1028C000092F182F0084F185E02D0995892BE1F659
:1028D0008E819F8101969F838E83812F902FDF9120
:1028E000CF911F910F910895FA01AA27283051F135
:1028F000203181F1E8946F936E7F6E5F7F4F8F4F31
:102900009F4FAF4FB1E03ED0B4E03CD0670F781F8F
:10291000891F9A1FA11D680F791F8A1F911DA11D74
:102920006A0F711D811D911DA11D20D009F46894AD
:102930003F912AE0269F11243019305D3193DEF655
:10294000CF010895462F4770405D4193B3E00FD00B
:10295000C9F7F6CF462F4F70405D4A3318F0495DF6
:1029600031FD4052419302D0A9F7EACFB4E0A695D9
:102970009795879577956795BA95C9F700976105FB
:10298000710508959B01AC010A2E06945795479551
:1029900037952795BA95C9F7620F731F841F951F46
:0829A000A01D0895F894FFCF7B
:1029A800FE03FE03010100003E03800000030F2523
:1029B80067406050000000008B0307035403320394
:1029C8004603D203525820627566666572206F7698
:1029D8006572666C6F7721005061636B6574207453
:1029E8006F6F206C6F6E67210020627974657300C9
:1029F800200047444F303A002047444F323A0020E5
:102A08005346443A00204343413A00205051545F12
:102A1800524541434845443A002043533A00204335
:102A280052433A0025252E25645800256464202544
:102A3800322E32643A25322E32643A25322E3264EE
:0A2A48002E25332E3364000D0A0022
:107800000C94343C0C94513C0C94513C0C94513CE1
:107810000C94513C0C94513C0C94513C0C94513CB4
:107820000C94513C0C94513C0C94513C0C94513CA4
:107830000C94513C0C94513C0C94513C0C94513C94
:107840000C94513C0C94513C0C94513C0C94513C84
:107850000C94513C0C94513C0C94513C0C94513C74
:107860000C94513C0C94513C11241FBECFEFD8E036
:10787000DEBFCDBF11E0A0E0B1E0ECE9FFE702C060
:1078800005900D92A230B107D9F712E0A2E0B1E065
:1078900001C01D92AD30B107E1F70E942D3D0C945F
:1078A000CC3F0C94003C982F959595959595959582
:1078B000905D8F708A307CF0282F295A8091C0000B
:1078C00085FFFCCF9093C6008091C00085FFFCCF60
:1078D0002093C6000895282F205DF0CF982F809127
:1078E000C00085FFFCCF9093C6000895EF92FF92F1
:1078F0000F931F93EE24FF2487018091C00087FD22
:1079000017C00894E11CF11C011D111D81E4E8164B
:1079100082E4F8068FE0080780E0180770F3E09132
:107920000401F091050109958091C00087FFE9CF1E
:107930008091C6001F910F91FF90EF9008950E94D3
:10794000763C982F8091C00085FFFCCF9093C600B5
:1079500091362CF490330CF09053892F089597555D
:10796000892F08951F930E949F3C182F0E949F3CCF
:107970001295107F810F1F9108951F93182F882350
:1079800021F00E94763C1150E1F71F9108951F935A
:10799000182F0E94763C803249F0809103018F5F5E
:1079A000809303018530C1F01F9108958091C0003C
:1079B00085FFFCCF84E18093C6008091C00085FFE5
:1079C000FCCF1093C6008091C00085FFFCCF80E102
:1079D0008093C6001F910895E0910401F091050184
:1079E00009951F9108950E94763C803241F0809164
:1079F00003018F5F80930301853081F008958091AA
:107A0000C00085FFFCCF84E18093C6008091C00058
:107A100085FFFCCF80E18093C6000895E0910401CA
:107A2000F09105010995089540E951E08823A1F0FE
:107A30002D9A28EE33E0FA013197F1F721503040CA
:107A4000D1F72D9828EE33E0FA013197F1F7215064
:107A50003040D1F7815061F708953F924F925F9285
:107A60006F927F928F929F92AF92BF92CF92DF924E
:107A7000EF92FF920F931F93CF93DF93000080E16B
:107A80008093C4001092C50088E18093C10086E015
:107A90008093C2005098589A259A81E00E94143D24
:107AA00024E1F22E9EE1E92E85E9D82E0FE0C02ECA
:107AB00010E1B12EAA24A394B1E49B2EA6E58A2E50
:107AC000F2E57F2EE0E26E2E79E4572E63E5462E36
:107AD00050E5352E0E94763C8033B1F18133B9F107
:107AE000803409F46FC0813409F476C0823409F41B
:107AF00085C0853409F488C0803531F1823521F1A3
:107B0000813511F1853509F485C0863509F48DC0BC
:107B1000843609F496C0843709F403C1853709F423
:107B200072C1863709F466C0809103018F5F80932C
:107B30000301853079F6E0910401F0910501099582
:107B40000E94763C803351F60E94F33CC3CF0E94E2
:107B5000763C803249F78091C00085FFFCCFF092DF
:107B6000C6008091C00085FFFCCF9092C600809136
:107B7000C00085FFFCCF8092C6008091C00085FFC9
:107B8000FCCF7092C6008091C00085FFFCCF609250
:107B9000C6008091C00085FFFCCF5092C600809146
:107BA000C00085FFFCCF4092C6008091C00085FFD9
:107BB000FCCF3092C6008091C00085FFFCCFB09210
:107BC000C60088CF0E94763C863808F4BDCF0E945C
:107BD000763C0E94F33C7ECF0E94763C803809F4CC
:107BE0009CC0813809F40BC1823809F43CC1883942
:107BF00009F48FC080E00E94C73C6CCF84E10E94F2
:107C0000BD3C0E94F33C66CF85E00E94BD3C0E94D3
:107C1000F33C60CF0E94763C809306010E94763C44
:107C2000809307010E94F33C55CF0E94763C80333D
:107C300009F41DC183E00E94BD3C80E00E94C73C66
:107C400049CF0E94763C809309020E94763C809343
:107C5000080280910C028E7F80930C020E94763C79
:107C6000853409F415C18091080290910902892B8D
:107C700089F000E010E00E94763CF801E85FFE4FDA
:107C800080830F5F1F4F80910802909109020817AF
:107C9000190788F30E94763C803209F045CF809125
:107CA0000C0280FF01C16091060170910701660F0F
:107CB000771F7093070160930601A0910802B091AD
:107CC00009021097C9F0E8E0F1E09B01AD014E0F09
:107CD0005F1FF999FECF32BD21BD819180BDFA9A17
:107CE000F99A2F5F3F4FE417F50799F76A0F7B1F4B
:107CF00070930701609306018091C00085FFFCCF5F
:107D0000F092C6008091C00085FFFCCFB092C60003
:107D1000E1CE83E00E94C73CDDCE82E00E94C73CFA
:107D2000D9CE0E94763C809309020E94763C8093D3
:107D300008028091060190910701880F991F909386
:107D40000701809306010E94763C853409F4A6C0A1
:107D500080910C028E7F80930C020E94763C8032D0
:107D600009F0B8CE8091C00085FFFCCFF092C6002C
:107D7000609108027091090261157105B9F140E046
:107D800050E080910C02A82FA170B82FB27011C0E2
:107D9000BB2309F45CC0E0910601F0910701319624
:107DA000F0930701E09306014F5F5F4F46175707B7
:107DB000E8F4AA2369F3F999FECF209106013091E6
:107DC000070132BD21BDF89A90B58091C00085FFB2
:107DD000FCCF9093C6002F5F3F4F30930701209355
:107DE00006014F5F5F4F4617570718F38091C00099
:107DF00085FDE5CE8091C00085FFF8CFE0CE81E023
:107E00000E94C73C67CE0E94763C803209F08CCE3F
:107E10008091C00085FFFCCFF092C6008091C00029
:107E200085FFFCCFE092C6008091C00085FFFCCFAB
:107E3000D092C6008091C00085FFFCCFC092C600E2
:107E40008091C00085FFFCCFB092C60043CEE09188
:107E50000601F091070194918091C00085FFFCCF4D
:107E60009093C6009CCF80E10E94C73C33CE0E9415
:107E7000763C0E94763C182F0E94763C112309F430
:107E800083C0113009F484C08FE00E94C73C22CE29
:107E900080910C02816080930C02E5CE80910C02EF
:107EA000816080930C0259CF809107018823880F4D
:107EB000880B8A2180930B02809106019091070123
:107EC000880F991F90930701809306018091080203
:107ED00080FF09C080910802909109020196909359
:107EE000090280930802F894F999FECF1127E091D6
:107EF0000601F0910701C8E0D1E08091080290915D
:107F00000902103091F40091570001700130D9F34B
:107F100003E000935700E89500915700017001308D
:107F2000D9F301E100935700E89509901990009169
:107F3000570001700130D9F301E000935700E89534
:107F40001395103498F011270091570001700130FB
:107F5000D9F305E000935700E895009157000170B0
:107F60000130D9F301E100935700E895329602976A
:107F700009F0C7CF103011F00296E5CF112480919F
:107F8000C00085FFB9CEBCCE8EE10E94C73CA2CD19
:0C7F900085E90E94C73C9ECDF894FFCF0D
:027F9C00800063
:040000030000780081
:00000001FF
